{
  "_format": "hh-sol-artifact-1",
  "contractName": "StartupFunding",
  "sourceName": "contracts/StartupFunding.sol",
  "abi": [
    {
      "anonymous": false,
      "inputs": [
        {
          "indexed": false,
          "internalType": "uint256",
          "name": "proposalId",
          "type": "uint256"
        },
        {
          "indexed": false,
          "internalType": "address",
          "name": "contributor",
          "type": "address"
        },
        {
          "indexed": false,
          "internalType": "uint256",
          "name": "amount",
          "type": "uint256"
        }
      ],
      "name": "ContributionMade",
      "type": "event"
    },
    {
      "anonymous": false,
      "inputs": [
        {
          "indexed": false,
          "internalType": "uint256",
          "name": "proposalId",
          "type": "uint256"
        },
        {
          "indexed": false,
          "internalType": "address",
          "name": "creator",
          "type": "address"
        },
        {
          "indexed": false,
          "internalType": "uint256",
          "name": "amount",
          "type": "uint256"
        }
      ],
      "name": "FundsClaimed",
      "type": "event"
    },
    {
      "anonymous": false,
      "inputs": [
        {
          "indexed": false,
          "internalType": "uint256",
          "name": "proposalId",
          "type": "uint256"
        },
        {
          "indexed": false,
          "internalType": "address",
          "name": "creator",
          "type": "address"
        },
        {
          "indexed": false,
          "internalType": "string",
          "name": "title",
          "type": "string"
        },
        {
          "indexed": false,
          "internalType": "uint256",
          "name": "fundingGoal",
          "type": "uint256"
        },
        {
          "indexed": false,
          "internalType": "uint256",
          "name": "deadline",
          "type": "uint256"
        }
      ],
      "name": "ProposalCreated",
      "type": "event"
    },
    {
      "anonymous": false,
      "inputs": [
        {
          "indexed": false,
          "internalType": "uint256",
          "name": "proposalId",
          "type": "uint256"
        },
        {
          "indexed": false,
          "internalType": "address",
          "name": "contributor",
          "type": "address"
        },
        {
          "indexed": false,
          "internalType": "uint256",
          "name": "amount",
          "type": "uint256"
        }
      ],
      "name": "RefundIssued",
      "type": "event"
    },
    {
      "inputs": [
        {
          "internalType": "uint256",
          "name": "_proposalId",
          "type": "uint256"
        }
      ],
      "name": "claimFunds",
      "outputs": [],
      "stateMutability": "nonpayable",
      "type": "function"
    },
    {
      "inputs": [
        {
          "internalType": "uint256",
          "name": "_proposalId",
          "type": "uint256"
        }
      ],
      "name": "contribute",
      "outputs": [],
      "stateMutability": "payable",
      "type": "function"
    },
    {
      "inputs": [
        {
          "internalType": "uint256",
          "name": "",
          "type": "uint256"
        },
        {
          "internalType": "address",
          "name": "",
          "type": "address"
        }
      ],
      "name": "contributions",
      "outputs": [
        {
          "internalType": "uint256",
          "name": "",
          "type": "uint256"
        }
      ],
      "stateMutability": "view",
      "type": "function"
    },
    {
      "inputs": [
        {
          "internalType": "string",
          "name": "_title",
          "type": "string"
        },
        {
          "internalType": "string",
          "name": "_description",
          "type": "string"
        },
        {
          "internalType": "uint256",
          "name": "_fundingGoal",
          "type": "uint256"
        },
        {
          "internalType": "uint256",
          "name": "_durationInDays",
          "type": "uint256"
        }
      ],
      "name": "createProposal",
      "outputs": [
        {
          "internalType": "uint256",
          "name": "",
          "type": "uint256"
        }
      ],
      "stateMutability": "nonpayable",
      "type": "function"
    },
    {
      "inputs": [
        {
          "internalType": "uint256",
          "name": "_proposalId",
          "type": "uint256"
        },
        {
          "internalType": "address",
          "name": "_contributor",
          "type": "address"
        }
      ],
      "name": "getContribution",
      "outputs": [
        {
          "internalType": "uint256",
          "name": "",
          "type": "uint256"
        }
      ],
      "stateMutability": "view",
      "type": "function"
    },
    {
      "inputs": [
        {
          "internalType": "uint256",
          "name": "_proposalId",
          "type": "uint256"
        }
      ],
      "name": "getProposal",
      "outputs": [
        {
          "internalType": "address",
          "name": "creator",
          "type": "address"
        },
        {
          "internalType": "string",
          "name": "title",
          "type": "string"
        },
        {
          "internalType": "string",
          "name": "description",
          "type": "string"
        },
        {
          "internalType": "uint256",
          "name": "fundingGoal",
          "type": "uint256"
        },
        {
          "internalType": "uint256",
          "name": "amountRaised",
          "type": "uint256"
        },
        {
          "internalType": "uint256",
          "name": "deadline",
          "type": "uint256"
        },
        {
          "internalType": "bool",
          "name": "claimed",
          "type": "bool"
        },
        {
          "internalType": "bool",
          "name": "active",
          "type": "bool"
        }
      ],
      "stateMutability": "view",
      "type": "function"
    },
    {
      "inputs": [
        {
          "internalType": "uint256",
          "name": "_proposalId",
          "type": "uint256"
        }
      ],
      "name": "getRefund",
      "outputs": [],
      "stateMutability": "nonpayable",
      "type": "function"
    },
    {
      "inputs": [],
      "name": "proposalCount",
      "outputs": [
        {
          "internalType": "uint256",
          "name": "",
          "type": "uint256"
        }
      ],
      "stateMutability": "view",
      "type": "function"
    },
    {
      "inputs": [
        {
          "internalType": "uint256",
          "name": "",
          "type": "uint256"
        }
      ],
      "name": "proposals",
      "outputs": [
        {
          "internalType": "address payable",
          "name": "creator",
          "type": "address"
        },
        {
          "internalType": "string",
          "name": "title",
          "type": "string"
        },
        {
          "internalType": "string",
          "name": "description",
          "type": "string"
        },
        {
          "internalType": "uint256",
          "name": "fundingGoal",
          "type": "uint256"
        },
        {
          "internalType": "uint256",
          "name": "amountRaised",
          "type": "uint256"
        },
        {
          "internalType": "uint256",
          "name": "deadline",
          "type": "uint256"
        },
        {
          "internalType": "bool",
          "name": "claimed",
          "type": "bool"
        },
        {
          "internalType": "bool",
          "name": "active",
          "type": "bool"
        }
      ],
      "stateMutability": "view",
      "type": "function"
    }
  ],
  "bytecode": "0x6080604052348015600f57600080fd5b5061203a8061001f6000396000f3fe6080604052600436106100865760003560e01c8063c1cbbca711610059578063c1cbbca714610172578063c7f758a81461018e578063d2f0be99146101d2578063da35c664146101fb578063e081dbf91461022657610086565b8063013cf08b1461008b5780631b55e338146100cf5780633d891f59146100f85780636b5e176614610135575b600080fd5b34801561009757600080fd5b506100b260048036038101906100ad91906110de565b610263565b6040516100c6989796959493929190611206565b60405180910390f35b3480156100db57600080fd5b506100f660048036038101906100f191906110de565b6103f5565b005b34801561010457600080fd5b5061011f600480360381019061011a91906112d0565b6106e4565b60405161012c9190611310565b60405180910390f35b34801561014157600080fd5b5061015c60048036038101906101579190611460565b610709565b6040516101699190611310565b60405180910390f35b61018c600480360381019061018791906110de565b610952565b005b34801561019a57600080fd5b506101b560048036038101906101b091906110de565b610b96565b6040516101c998979695949392919061150e565b60405180910390f35b3480156101de57600080fd5b506101f960048036038101906101f491906110de565b610d4c565b005b34801561020757600080fd5b50610210611033565b60405161021d9190611310565b60405180910390f35b34801561023257600080fd5b5061024d600480360381019061024891906112d0565b611039565b60405161025a9190611310565b60405180910390f35b60006020528060005260406000206000915090508060000160009054906101000a900473ffffffffffffffffffffffffffffffffffffffff16908060010180546102ac906115c9565b80601f01602080910402602001604051908101604052809291908181526020018280546102d8906115c9565b80156103255780601f106102fa57610100808354040283529160200191610325565b820191906000526020600020905b81548152906001019060200180831161030857829003601f168201915b50505050509080600201805461033a906115c9565b80601f0160208091040260200160405190810160405280929190818152602001828054610366906115c9565b80156103b35780601f10610388576101008083540402835291602001916103b3565b820191906000526020600020905b81548152906001019060200180831161039657829003601f168201915b5050505050908060030154908060040154908060050154908060060160009054906101000a900460ff16908060060160019054906101000a900460ff16905088565b600080600083815260200190815260200160002090508060000160009054906101000a900473ffffffffffffffffffffffffffffffffffffffff1673ffffffffffffffffffffffffffffffffffffffff163373ffffffffffffffffffffffffffffffffffffffff161461049d576040517f08c379a000000000000000000000000000000000000000000000000000000000815260040161049490611646565b60405180910390fd5b80600501544210156104e4576040517f08c379a00000000000000000000000000000000000000000000000000000000081526004016104db906116b2565b60405180910390fd5b80600301548160040154101561052f576040517f08c379a00000000000000000000000000000000000000000000000000000000081526004016105269061171e565b60405180910390fd5b8060060160009054906101000a900460ff1615610581576040517f08c379a00000000000000000000000000000000000000000000000000000000081526004016105789061178a565b60405180910390fd5b8060060160019054906101000a900460ff166105d2576040517f08c379a00000000000000000000000000000000000000000000000000000000081526004016105c9906117f6565b60405180910390fd5b60018160060160006101000a81548160ff02191690831515021790555060008160060160016101000a81548160ff0219169083151502179055506000816004015490508160000160009054906101000a900473ffffffffffffffffffffffffffffffffffffffff1673ffffffffffffffffffffffffffffffffffffffff166108fc829081150290604051600060405180830381858888f1935050505015801561067f573d6000803e3d6000fd5b507fa4eb50103b0591feb0bc913f479d92af5eb7ea33e8c397b49bab52ce6af26cb5838360000160009054906101000a900473ffffffffffffffffffffffffffffffffffffffff16836040516106d793929190611875565b60405180910390a1505050565b6001602052816000526040600020602052806000526040600020600091509150505481565b600080831161074d576040517f08c379a00000000000000000000000000000000000000000000000000000000081526004016107449061191e565b60405180910390fd5b60008211610790576040517f08c379a00000000000000000000000000000000000000000000000000000000081526004016107879061198a565b60405180910390fd5b6000600260008154809291906107a5906119d9565b919050559050600062015180846107bc9190611a21565b426107c79190611a63565b90506040518061010001604052803373ffffffffffffffffffffffffffffffffffffffff168152602001888152602001878152602001868152602001600081526020018281526020016000151581526020016001151581525060008084815260200190815260200160002060008201518160000160006101000a81548173ffffffffffffffffffffffffffffffffffffffff021916908373ffffffffffffffffffffffffffffffffffffffff160217905550602082015181600101908161088e9190611c39565b5060408201518160020190816108a49190611c39565b50606082015181600301556080820151816004015560a0820151816005015560c08201518160060160006101000a81548160ff02191690831515021790555060e08201518160060160016101000a81548160ff0219169083151502179055509050507f6c98a8c940418b35614f0cd02412d5c9606faff474cbb6cdd6640ba5d1a9f06b823389888560405161093d959493929190611d0b565b60405180910390a18192505050949350505050565b60008060008381526020019081526020016000209050600073ffffffffffffffffffffffffffffffffffffffff168160000160009054906101000a900473ffffffffffffffffffffffffffffffffffffffff1673ffffffffffffffffffffffffffffffffffffffff16036109fb576040517f08c379a00000000000000000000000000000000000000000000000000000000081526004016109f290611db1565b60405180910390fd5b80600501544210610a41576040517f08c379a0000000000000000000000000000000000000000000000000000000008152600401610a3890611e1d565b60405180910390fd5b8060060160019054906101000a900460ff16610a92576040517f08c379a0000000000000000000000000000000000000000000000000000000008152600401610a89906117f6565b60405180910390fd5b60003411610ad5576040517f08c379a0000000000000000000000000000000000000000000000000000000008152600401610acc90611eaf565b60405180910390fd5b34816004016000828254610ae99190611a63565b92505081905550346001600084815260200190815260200160002060003373ffffffffffffffffffffffffffffffffffffffff1673ffffffffffffffffffffffffffffffffffffffff1681526020019081526020016000206000828254610b509190611a63565b925050819055507f0a4a91237423e0a1766a761c7cb029311d8b95d6b1b81db1b949a70c98b4e08e823334604051610b8a93929190611ecf565b60405180910390a15050565b60006060806000806000806000806000808b815260200190815260200160002090508060000160009054906101000a900473ffffffffffffffffffffffffffffffffffffffff1681600101826002018360030154846004015485600501548660060160009054906101000a900460ff168760060160019054906101000a900460ff16868054610c24906115c9565b80601f0160208091040260200160405190810160405280929190818152602001828054610c50906115c9565b8015610c9d5780601f10610c7257610100808354040283529160200191610c9d565b820191906000526020600020905b815481529060010190602001808311610c8057829003601f168201915b50505050509650858054610cb0906115c9565b80601f0160208091040260200160405190810160405280929190818152602001828054610cdc906115c9565b8015610d295780601f10610cfe57610100808354040283529160200191610d29565b820191906000526020600020905b815481529060010190602001808311610d0c57829003601f168201915b505050505095509850985098509850985098509850985050919395975091939597565b600080600083815260200190815260200160002090508060050154421015610da9576040517f08c379a0000000000000000000000000000000000000000000000000000000008152600401610da0906116b2565b60405180910390fd5b8060030154816004015410610df3576040517f08c379a0000000000000000000000000000000000000000000000000000000008152600401610dea90611f78565b60405180910390fd5b8060060160019054906101000a900460ff16610e44576040517f08c379a0000000000000000000000000000000000000000000000000000000008152600401610e3b906117f6565b60405180910390fd5b60006001600084815260200190815260200160002060003373ffffffffffffffffffffffffffffffffffffffff1673ffffffffffffffffffffffffffffffffffffffff1681526020019081526020016000205411610ed7576040517f08c379a0000000000000000000000000000000000000000000000000000000008152600401610ece90611fe4565b60405180910390fd5b60006001600084815260200190815260200160002060003373ffffffffffffffffffffffffffffffffffffffff1673ffffffffffffffffffffffffffffffffffffffff16815260200190815260200160002054905060006001600085815260200190815260200160002060003373ffffffffffffffffffffffffffffffffffffffff1673ffffffffffffffffffffffffffffffffffffffff168152602001908152602001600020819055506000826004015403610fac5760008260060160016101000a81548160ff0219169083151502179055505b3373ffffffffffffffffffffffffffffffffffffffff166108fc829081150290604051600060405180830381858888f19350505050158015610ff2573d6000803e3d6000fd5b507f7a482fdeb6bc9a1376f597068a214a7a39472bb2eff1b8cad21ba04f49ddca1b83338360405161102693929190611ecf565b60405180910390a1505050565b60025481565b60006001600084815260200190815260200160002060008373ffffffffffffffffffffffffffffffffffffffff1673ffffffffffffffffffffffffffffffffffffffff16815260200190815260200160002054905092915050565b6000604051905090565b600080fd5b600080fd5b6000819050919050565b6110bb816110a8565b81146110c657600080fd5b50565b6000813590506110d8816110b2565b92915050565b6000602082840312156110f4576110f361109e565b5b6000611102848285016110c9565b91505092915050565b600073ffffffffffffffffffffffffffffffffffffffff82169050919050565b60006111368261110b565b9050919050565b6111468161112b565b82525050565b600081519050919050565b600082825260208201905092915050565b60005b8381101561118657808201518184015260208101905061116b565b60008484015250505050565b6000601f19601f8301169050919050565b60006111ae8261114c565b6111b88185611157565b93506111c8818560208601611168565b6111d181611192565b840191505092915050565b6111e5816110a8565b82525050565b60008115159050919050565b611200816111eb565b82525050565b60006101008201905061121c600083018b61113d565b818103602083015261122e818a6111a3565b9050818103604083015261124281896111a3565b905061125160608301886111dc565b61125e60808301876111dc565b61126b60a08301866111dc565b61127860c08301856111f7565b61128560e08301846111f7565b9998505050505050505050565b600061129d8261110b565b9050919050565b6112ad81611292565b81146112b857600080fd5b50565b6000813590506112ca816112a4565b92915050565b600080604083850312156112e7576112e661109e565b5b60006112f5858286016110c9565b9250506020611306858286016112bb565b9150509250929050565b600060208201905061132560008301846111dc565b92915050565b600080fd5b600080fd5b7f4e487b7100000000000000000000000000000000000000000000000000000000600052604160045260246000fd5b61136d82611192565b810181811067ffffffffffffffff8211171561138c5761138b611335565b5b80604052505050565b600061139f611094565b90506113ab8282611364565b919050565b600067ffffffffffffffff8211156113cb576113ca611335565b5b6113d482611192565b9050602081019050919050565b82818337600083830152505050565b60006114036113fe846113b0565b611395565b90508281526020810184848401111561141f5761141e611330565b5b61142a8482856113e1565b509392505050565b600082601f8301126114475761144661132b565b5b81356114578482602086016113f0565b91505092915050565b6000806000806080858703121561147a5761147961109e565b5b600085013567ffffffffffffffff811115611498576114976110a3565b5b6114a487828801611432565b945050602085013567ffffffffffffffff8111156114c5576114c46110a3565b5b6114d187828801611432565b93505060406114e2878288016110c9565b92505060606114f3878288016110c9565b91505092959194509250565b61150881611292565b82525050565b600061010082019050611524600083018b6114ff565b8181036020830152611536818a6111a3565b9050818103604083015261154a81896111a3565b905061155960608301886111dc565b61156660808301876111dc565b61157360a08301866111dc565b61158060c08301856111f7565b61158d60e08301846111f7565b9998505050505050505050565b7f4e487b7100000000000000000000000000000000000000000000000000000000600052602260045260246000fd5b600060028204905060018216806115e157607f821691505b6020821081036115f4576115f361159a565b5b50919050565b7f4f6e6c792063726561746f722063616e20636c61696d2066756e647300000000600082015250565b6000611630601c83611157565b915061163b826115fa565b602082019050919050565b6000602082019050818103600083015261165f81611623565b9050919050565b7f46756e64696e6720706572696f64206e6f7420796574206f7665720000000000600082015250565b600061169c601b83611157565b91506116a782611666565b602082019050919050565b600060208201905081810360008301526116cb8161168f565b9050919050565b7f46756e64696e6720676f616c206e6f7420726561636865640000000000000000600082015250565b6000611708601883611157565b9150611713826116d2565b602082019050919050565b60006020820190508181036000830152611737816116fb565b9050919050565b7f46756e647320616c726561647920636c61696d65640000000000000000000000600082015250565b6000611774601583611157565b915061177f8261173e565b602082019050919050565b600060208201905081810360008301526117a381611767565b9050919050565b7f50726f706f73616c206973206e6f742061637469766500000000000000000000600082015250565b60006117e0601683611157565b91506117eb826117aa565b602082019050919050565b6000602082019050818103600083015261180f816117d3565b9050919050565b6000819050919050565b600061183b6118366118318461110b565b611816565b61110b565b9050919050565b600061184d82611820565b9050919050565b600061185f82611842565b9050919050565b61186f81611854565b82525050565b600060608201905061188a60008301866111dc565b6118976020830185611866565b6118a460408301846111dc565b949350505050565b7f46756e64696e6720676f616c206d75737420626520677265617465722074686160008201527f6e20300000000000000000000000000000000000000000000000000000000000602082015250565b6000611908602383611157565b9150611913826118ac565b604082019050919050565b60006020820190508181036000830152611937816118fb565b9050919050565b7f4475726174696f6e206d7573742062652067726561746572207468616e203000600082015250565b6000611974601f83611157565b915061197f8261193e565b602082019050919050565b600060208201905081810360008301526119a381611967565b9050919050565b7f4e487b7100000000000000000000000000000000000000000000000000000000600052601160045260246000fd5b60006119e4826110a8565b91507fffffffffffffffffffffffffffffffffffffffffffffffffffffffffffffffff8203611a1657611a156119aa565b5b600182019050919050565b6000611a2c826110a8565b9150611a37836110a8565b9250828202611a45816110a8565b91508282048414831517611a5c57611a5b6119aa565b5b5092915050565b6000611a6e826110a8565b9150611a79836110a8565b9250828201905080821115611a9157611a906119aa565b5b92915050565b60008190508160005260206000209050919050565b60006020601f8301049050919050565b600082821b905092915050565b600060088302611af97fffffffffffffffffffffffffffffffffffffffffffffffffffffffffffffffff82611abc565b611b038683611abc565b95508019841693508086168417925050509392505050565b6000611b36611b31611b2c846110a8565b611816565b6110a8565b9050919050565b6000819050919050565b611b5083611b1b565b611b64611b5c82611b3d565b848454611ac9565b825550505050565b600090565b611b79611b6c565b611b84818484611b47565b505050565b5b81811015611ba857611b9d600082611b71565b600181019050611b8a565b5050565b601f821115611bed57611bbe81611a97565b611bc784611aac565b81016020851015611bd6578190505b611bea611be285611aac565b830182611b89565b50505b505050565b600082821c905092915050565b6000611c1060001984600802611bf2565b1980831691505092915050565b6000611c298383611bff565b9150826002028217905092915050565b611c428261114c565b67ffffffffffffffff811115611c5b57611c5a611335565b5b611c6582546115c9565b611c70828285611bac565b600060209050601f831160018114611ca35760008415611c91578287015190505b611c9b8582611c1d565b865550611d03565b601f198416611cb186611a97565b60005b82811015611cd957848901518255600182019150602085019450602081019050611cb4565b86831015611cf65784890151611cf2601f891682611bff565b8355505b6001600288020188555050505b505050505050565b600060a082019050611d2060008301886111dc565b611d2d60208301876114ff565b8181036040830152611d3f81866111a3565b9050611d4e60608301856111dc565b611d5b60808301846111dc565b9695505050505050565b7f50726f706f73616c20646f6573206e6f74206578697374000000000000000000600082015250565b6000611d9b601783611157565b9150611da682611d65565b602082019050919050565b60006020820190508181036000830152611dca81611d8e565b9050919050565b7f46756e64696e6720706572696f642068617320656e6465640000000000000000600082015250565b6000611e07601883611157565b9150611e1282611dd1565b602082019050919050565b60006020820190508181036000830152611e3681611dfa565b9050919050565b7f436f6e747269627574696f6e206d75737420626520677265617465722074686160008201527f6e20300000000000000000000000000000000000000000000000000000000000602082015250565b6000611e99602383611157565b9150611ea482611e3d565b604082019050919050565b60006020820190508181036000830152611ec881611e8c565b9050919050565b6000606082019050611ee460008301866111dc565b611ef160208301856114ff565b611efe60408301846111dc565b949350505050565b7f46756e64696e6720676f616c20726561636865642c2063616e6e6f742072656660008201527f756e640000000000000000000000000000000000000000000000000000000000602082015250565b6000611f62602383611157565b9150611f6d82611f06565b604082019050919050565b60006020820190508181036000830152611f9181611f55565b9050919050565b7f4e6f20636f6e747269627574696f6e20666f756e640000000000000000000000600082015250565b6000611fce601583611157565b9150611fd982611f98565b602082019050919050565b60006020820190508181036000830152611ffd81611fc1565b905091905056fea2646970667358221220576c000948507675a33e3ae580614a3b7bca2c66be234d013860dbc6a38aefc364736f6c634300081c0033",
  "linkReferences": {},
  "deployedLinkReferences": {}
}